:030000000200AB50
:07000B00B200C28CD20232E8
:03001B000200F5EB
:0E00AB0075A88A75020875030D758911D200BB
:1000B90053A0F0310D75020C750367310D75020BF4
:0F00C9007503AF310D750209750386310D80FE89
:1000D80030000D200105D2A1C2A022D2A0C2A122C7
:1000E800200105D2A3C2A222D2A2C2A322300006B6
:0E00F800C2A1C2A08006C2A2C2A38000C28E16
:0F01060085028D85038B32C202758C00758A00CD
:1001150085028D85038B11D8D28CD28E3002FD22BB
:00000001FF
